{
  "_format": "hh3-artifact-1",
  "contractName": "JobEscrow",
  "sourceName": "src/JobEscrow.sol",
  "abi": [
    {
      "inputs": [
        {
          "internalType": "address",
          "name": "_token",
          "type": "address"
        },
        {
          "internalType": "address",
          "name": "_treasury",
          "type": "address"
        }
      ],
      "stateMutability": "nonpayable",
      "type": "constructor"
    },
    {
      "anonymous": false,
      "inputs": [
        {
          "indexed": false,
          "internalType": "uint256",
          "name": "jobId",
          "type": "uint256"
        },
        {
          "indexed": false,
          "internalType": "address",
          "name": "worker",
          "type": "address"
        }
      ],
      "name": "JobAccepted",
      "type": "event"
    },
    {
      "anonymous": false,
      "inputs": [
        {
          "indexed": false,
          "internalType": "uint256",
          "name": "jobId",
          "type": "uint256"
        },
        {
          "indexed": false,
          "internalType": "address",
          "name": "requester",
          "type": "address"
        }
      ],
      "name": "JobCreated",
      "type": "event"
    },
    {
      "anonymous": false,
      "inputs": [
        {
          "indexed": false,
          "internalType": "uint256",
          "name": "jobId",
          "type": "uint256"
        }
      ],
      "name": "JobDisputed",
      "type": "event"
    },
    {
      "anonymous": false,
      "inputs": [
        {
          "indexed": false,
          "internalType": "uint256",
          "name": "jobId",
          "type": "uint256"
        }
      ],
      "name": "JobFinalized",
      "type": "event"
    },
    {
      "anonymous": false,
      "inputs": [
        {
          "indexed": false,
          "internalType": "uint256",
          "name": "jobId",
          "type": "uint256"
        },
        {
          "indexed": false,
          "internalType": "uint256",
          "name": "amount",
          "type": "uint256"
        }
      ],
      "name": "JobFunded",
      "type": "event"
    },
    {
      "anonymous": false,
      "inputs": [
        {
          "indexed": false,
          "internalType": "uint256",
          "name": "jobId",
          "type": "uint256"
        }
      ],
      "name": "JobVerified",
      "type": "event"
    },
    {
      "anonymous": false,
      "inputs": [
        {
          "indexed": false,
          "internalType": "uint256",
          "name": "jobId",
          "type": "uint256"
        },
        {
          "indexed": false,
          "internalType": "address",
          "name": "validator",
          "type": "address"
        },
        {
          "indexed": false,
          "internalType": "bool",
          "name": "choice",
          "type": "bool"
        }
      ],
      "name": "VoteCast",
      "type": "event"
    },
    {
      "anonymous": false,
      "inputs": [
        {
          "indexed": false,
          "internalType": "uint256",
          "name": "jobId",
          "type": "uint256"
        },
        {
          "indexed": false,
          "internalType": "string",
          "name": "cid",
          "type": "string"
        }
      ],
      "name": "WorkSubmitted",
      "type": "event"
    },
    {
      "inputs": [
        {
          "internalType": "uint256",
          "name": "jobId",
          "type": "uint256"
        },
        {
          "internalType": "uint256",
          "name": "stakeAmount",
          "type": "uint256"
        }
      ],
      "name": "acceptJob",
      "outputs": [],
      "stateMutability": "nonpayable",
      "type": "function"
    },
    {
      "inputs": [],
      "name": "burnPercent",
      "outputs": [
        {
          "internalType": "uint256",
          "name": "",
          "type": "uint256"
        }
      ],
      "stateMutability": "view",
      "type": "function"
    },
    {
      "inputs": [
        {
          "internalType": "uint256",
          "name": "usdPrice",
          "type": "uint256"
        },
        {
          "internalType": "address",
          "name": "requesterPubKey",
          "type": "address"
        },
        {
          "internalType": "uint256",
          "name": "deadline",
          "type": "uint256"
        }
      ],
      "name": "createJob",
      "outputs": [
        {
          "internalType": "uint256",
          "name": "",
          "type": "uint256"
        }
      ],
      "stateMutability": "nonpayable",
      "type": "function"
    },
    {
      "inputs": [
        {
          "internalType": "uint256",
          "name": "jobId",
          "type": "uint256"
        }
      ],
      "name": "finalize",
      "outputs": [],
      "stateMutability": "nonpayable",
      "type": "function"
    },
    {
      "inputs": [
        {
          "internalType": "uint256",
          "name": "jobId",
          "type": "uint256"
        }
      ],
      "name": "finalizeValidation",
      "outputs": [],
      "stateMutability": "nonpayable",
      "type": "function"
    },
    {
      "inputs": [
        {
          "internalType": "uint256",
          "name": "jobId",
          "type": "uint256"
        },
        {
          "internalType": "uint256",
          "name": "tokenAmount",
          "type": "uint256"
        }
      ],
      "name": "fundJob",
      "outputs": [],
      "stateMutability": "nonpayable",
      "type": "function"
    },
    {
      "inputs": [],
      "name": "jobCounter",
      "outputs": [
        {
          "internalType": "uint256",
          "name": "",
          "type": "uint256"
        }
      ],
      "stateMutability": "view",
      "type": "function"
    },
    {
      "inputs": [
        {
          "internalType": "uint256",
          "name": "",
          "type": "uint256"
        }
      ],
      "name": "jobs",
      "outputs": [
        {
          "internalType": "address",
          "name": "requester",
          "type": "address"
        },
        {
          "internalType": "address",
          "name": "worker",
          "type": "address"
        },
        {
          "internalType": "uint256",
          "name": "usdPrice",
          "type": "uint256"
        },
        {
          "internalType": "uint256",
          "name": "tokenAmount",
          "type": "uint256"
        },
        {
          "internalType": "bytes32",
          "name": "resultHash",
          "type": "bytes32"
        },
        {
          "internalType": "string",
          "name": "resultCID",
          "type": "string"
        },
        {
          "internalType": "address",
          "name": "requesterPubKey",
          "type": "address"
        },
        {
          "internalType": "uint256",
          "name": "stakeAmount",
          "type": "uint256"
        },
        {
          "internalType": "enum JobEscrow.JobState",
          "name": "state",
          "type": "uint8"
        },
        {
          "internalType": "uint256",
          "name": "createdAt",
          "type": "uint256"
        },
        {
          "internalType": "uint256",
          "name": "deadline",
          "type": "uint256"
        }
      ],
      "stateMutability": "view",
      "type": "function"
    },
    {
      "inputs": [],
      "name": "owner",
      "outputs": [
        {
          "internalType": "address",
          "name": "",
          "type": "address"
        }
      ],
      "stateMutability": "view",
      "type": "function"
    },
    {
      "inputs": [
        {
          "internalType": "uint256",
          "name": "amount",
          "type": "uint256"
        }
      ],
      "name": "stakeAsValidator",
      "outputs": [],
      "stateMutability": "nonpayable",
      "type": "function"
    },
    {
      "inputs": [
        {
          "internalType": "uint256",
          "name": "jobId",
          "type": "uint256"
        },
        {
          "internalType": "bytes32",
          "name": "resultHash",
          "type": "bytes32"
        },
        {
          "internalType": "string",
          "name": "resultCID",
          "type": "string"
        }
      ],
      "name": "submitWork",
      "outputs": [],
      "stateMutability": "nonpayable",
      "type": "function"
    },
    {
      "inputs": [],
      "name": "token",
      "outputs": [
        {
          "internalType": "contract IERC20",
          "name": "",
          "type": "address"
        }
      ],
      "stateMutability": "view",
      "type": "function"
    },
    {
      "inputs": [],
      "name": "treasury",
      "outputs": [
        {
          "internalType": "address",
          "name": "",
          "type": "address"
        }
      ],
      "stateMutability": "view",
      "type": "function"
    },
    {
      "inputs": [],
      "name": "treasuryPercent",
      "outputs": [
        {
          "internalType": "uint256",
          "name": "",
          "type": "uint256"
        }
      ],
      "stateMutability": "view",
      "type": "function"
    },
    {
      "inputs": [
        {
          "internalType": "uint256",
          "name": "",
          "type": "uint256"
        }
      ],
      "name": "validations",
      "outputs": [
        {
          "internalType": "uint256",
          "name": "yesVotes",
          "type": "uint256"
        },
        {
          "internalType": "uint256",
          "name": "noVotes",
          "type": "uint256"
        }
      ],
      "stateMutability": "view",
      "type": "function"
    },
    {
      "inputs": [],
      "name": "validatorRewardPercent",
      "outputs": [
        {
          "internalType": "uint256",
          "name": "",
          "type": "uint256"
        }
      ],
      "stateMutability": "view",
      "type": "function"
    },
    {
      "inputs": [
        {
          "internalType": "address",
          "name": "",
          "type": "address"
        }
      ],
      "name": "validatorStake",
      "outputs": [
        {
          "internalType": "uint256",
          "name": "",
          "type": "uint256"
        }
      ],
      "stateMutability": "view",
      "type": "function"
    },
    {
      "inputs": [
        {
          "internalType": "uint256",
          "name": "jobId",
          "type": "uint256"
        },
        {
          "internalType": "bool",
          "name": "isValid",
          "type": "bool"
        }
      ],
      "name": "vote",
      "outputs": [],
      "stateMutability": "nonpayable",
      "type": "function"
    }
  ],
  "bytecode": "0x60806040526002600455600260055560016006553480156200001f575f80fd5b5060405162002cf538038062002cf5833981810160405281019062000045919062000171565b815f806101000a81548173ffffffffffffffffffffffffffffffffffffffff021916908373ffffffffffffffffffffffffffffffffffffffff1602179055503360015f6101000a81548173ffffffffffffffffffffffffffffffffffffffff021916908373ffffffffffffffffffffffffffffffffffffffff1602179055508060025f6101000a81548173ffffffffffffffffffffffffffffffffffffffff021916908373ffffffffffffffffffffffffffffffffffffffff1602179055505050620001b6565b5f80fd5b5f73ffffffffffffffffffffffffffffffffffffffff82169050919050565b5f6200013b8262000110565b9050919050565b6200014d816200012f565b811462000158575f80fd5b50565b5f815190506200016b8162000142565b92915050565b5f80604083850312156200018a57620001896200010c565b5b5f62000199858286016200015b565b9250506020620001ac858286016200015b565b9150509250929050565b612b3180620001c45f395ff3fe608060405234801561000f575f80fd5b5060043610610114575f3560e01c80635178f724116100a057806389082fb91161006f57806389082fb9146102d25780638da5cb5b146102f0578063c9d27afe1461030e578063d037a7a31461032a578063fc0c546a1461035b57610114565b80635178f7241461024c5780635207cdc91461027c57806361d027b314610298578063620fae50146102b657610114565b80630af915ee116100e75780630af915ee1461018c578063180aedf3146101a857806339b7fcc6146101e25780634b7987161461021257806350355d761461022e57610114565b806303807ee51461011857806304ef9d581461013657806305261aea146101545780630a3ff40d14610170575b5f80fd5b610120610379565b60405161012d9190611af9565b60405180910390f35b61013e61037f565b60405161014b9190611af9565b60405180910390f35b61016e60048036038101906101699190611b44565b610385565b005b61018a60048036038101906101859190611b6f565b610878565b005b6101a660048036038101906101a19190611b6f565b610b38565b005b6101c260048036038101906101bd9190611b44565b610db4565b6040516101d99b9a99989796959493929190611d01565b60405180910390f35b6101fc60048036038101906101f79190611ddb565b610ef9565b6040516102099190611af9565b60405180910390f35b61022c60048036038101906102279190611b44565b610f0e565b005b610236611096565b6040516102439190611af9565b60405180910390f35b61026660048036038101906102619190611e06565b61109c565b6040516102739190611af9565b60405180910390f35b61029660048036038101906102919190611b44565b6111db565b005b6102a061130c565b6040516102ad9190611e56565b60405180910390f35b6102d060048036038101906102cb9190611efa565b611331565b005b6102da6114ec565b6040516102e79190611af9565b60405180910390f35b6102f86114f2565b6040516103059190611e56565b60405180910390f35b61032860048036038101906103239190611fa0565b611517565b005b610344600480360381019061033f9190611b44565b611849565b604051610352929190611fde565b60405180910390f35b610363611869565b6040516103709190612060565b60405180910390f35b60045481565b60065481565b80600580600881111561039b5761039a611c8e565b5b60075f8481526020019081526020015f206008015f9054906101000a900460ff1660088111156103ce576103cd611c8e565b5b1461040e576040517f08c379a0000000000000000000000000000000000000000000000000000000008152600401610405906120c3565b60405180910390fd5b5f60075f8581526020019081526020015f2090505f60646004548360030154610437919061210e565b610441919061217c565b90505f60646005548460030154610458919061210e565b610462919061217c565b90505f60646006548560030154610479919061210e565b610483919061217c565b90505f818385876003015461049891906121ac565b6104a291906121ac565b6104ac91906121ac565b90505f8054906101000a900473ffffffffffffffffffffffffffffffffffffffff1673ffffffffffffffffffffffffffffffffffffffff1663a9059cbb5f866040518363ffffffff1660e01b81526004016105089291906121df565b6020604051808303815f875af1158015610524573d5f803e3d5ffd5b505050506040513d601f19601f82011682018060405250810190610548919061221a565b505f8054906101000a900473ffffffffffffffffffffffffffffffffffffffff1673ffffffffffffffffffffffffffffffffffffffff1663a9059cbb60025f9054906101000a900473ffffffffffffffffffffffffffffffffffffffff16846040518363ffffffff1660e01b81526004016105c49291906121df565b6020604051808303815f875af11580156105e0573d5f803e3d5ffd5b505050506040513d601f19601f82011682018060405250810190610604919061221a565b505f8054906101000a900473ffffffffffffffffffffffffffffffffffffffff1673ffffffffffffffffffffffffffffffffffffffff1663a9059cbb866001015f9054906101000a900473ffffffffffffffffffffffffffffffffffffffff16836040518363ffffffff1660e01b81526004016106829291906121df565b6020604051808303815f875af115801561069e573d5f803e3d5ffd5b505050506040513d601f19601f820116820180604052508101906106c2919061221a565b610701576040517f08c379a00000000000000000000000000000000000000000000000000000000081526004016106f89061228f565b60405180910390fd5b5f8054906101000a900473ffffffffffffffffffffffffffffffffffffffff1673ffffffffffffffffffffffffffffffffffffffff1663a9059cbb866001015f9054906101000a900473ffffffffffffffffffffffffffffffffffffffff1687600701546040518363ffffffff1660e01b81526004016107829291906121df565b6020604051808303815f875af115801561079e573d5f803e3d5ffd5b505050506040513d601f19601f820116820180604052508101906107c2919061221a565b610801576040517f08c379a00000000000000000000000000000000000000000000000000000000081526004016107f8906122f7565b60405180910390fd5b61080b888461188c565b6008856008015f6101000a81548160ff0219169083600881111561083257610831611c8e565b5b02179055507fb670713b08c29deb4e717b2ea54619c08de292f37aada3efa88a5b4be35cf3d7886040516108669190611af9565b60405180910390a15050505050505050565b81600180600881111561088e5761088d611c8e565b5b60075f8481526020019081526020015f206008015f9054906101000a900460ff1660088111156108c1576108c0611c8e565b5b14610901576040517f08c379a00000000000000000000000000000000000000000000000000000000081526004016108f8906120c3565b60405180910390fd5b5f60075f8681526020019081526020015f2090505f73ffffffffffffffffffffffffffffffffffffffff16816001015f9054906101000a900473ffffffffffffffffffffffffffffffffffffffff1673ffffffffffffffffffffffffffffffffffffffff16146109a6576040517f08c379a000000000000000000000000000000000000000000000000000000000815260040161099d9061235f565b60405180910390fd5b5f8054906101000a900473ffffffffffffffffffffffffffffffffffffffff1673ffffffffffffffffffffffffffffffffffffffff166323b872dd3330876040518463ffffffff1660e01b8152600401610a029392919061237d565b6020604051808303815f875af1158015610a1e573d5f803e3d5ffd5b505050506040513d601f19601f82011682018060405250810190610a42919061221a565b610a81576040517f08c379a0000000000000000000000000000000000000000000000000000000008152600401610a78906122f7565b60405180910390fd5b33816001015f6101000a81548173ffffffffffffffffffffffffffffffffffffffff021916908373ffffffffffffffffffffffffffffffffffffffff1602179055508381600701819055506002816008015f6101000a81548160ff02191690836008811115610af357610af2611c8e565b5b02179055507f4426e4a90a9570c8f678a263b11785eaaade8b79d76d18c43d4d8e00062e4f838533604051610b299291906123b2565b60405180910390a15050505050565b815f806008811115610b4d57610b4c611c8e565b5b60075f8481526020019081526020015f206008015f9054906101000a900460ff166008811115610b8057610b7f611c8e565b5b14610bc0576040517f08c379a0000000000000000000000000000000000000000000000000000000008152600401610bb7906120c3565b60405180910390fd5b5f60075f8681526020019081526020015f209050805f015f9054906101000a900473ffffffffffffffffffffffffffffffffffffffff1673ffffffffffffffffffffffffffffffffffffffff163373ffffffffffffffffffffffffffffffffffffffff1614610c64576040517f08c379a0000000000000000000000000000000000000000000000000000000008152600401610c5b90612423565b60405180910390fd5b5f8054906101000a900473ffffffffffffffffffffffffffffffffffffffff1673ffffffffffffffffffffffffffffffffffffffff166323b872dd3330876040518463ffffffff1660e01b8152600401610cc09392919061237d565b6020604051808303815f875af1158015610cdc573d5f803e3d5ffd5b505050506040513d601f19601f82011682018060405250810190610d00919061221a565b610d3f576040517f08c379a0000000000000000000000000000000000000000000000000000000008152600401610d369061248b565b60405180910390fd5b8381600301819055506001816008015f6101000a81548160ff02191690836008811115610d6f57610d6e611c8e565b5b02179055507f9d25c5cf940eed311c45e5a0b4c7c8790a356d3c356453b76bb7e232db3f384a8585604051610da5929190611fde565b60405180910390a15050505050565b6007602052805f5260405f205f91509050805f015f9054906101000a900473ffffffffffffffffffffffffffffffffffffffff1690806001015f9054906101000a900473ffffffffffffffffffffffffffffffffffffffff1690806002015490806003015490806004015490806005018054610e2f906124d6565b80601f0160208091040260200160405190810160405280929190818152602001828054610e5b906124d6565b8015610ea65780601f10610e7d57610100808354040283529160200191610ea6565b820191905f5260205f20905b815481529060010190602001808311610e8957829003601f168201915b505050505090806006015f9054906101000a900473ffffffffffffffffffffffffffffffffffffffff1690806007015490806008015f9054906101000a900460ff169080600901549080600a015490508b565b6009602052805f5260405f205f915090505481565b5f60075f8381526020019081526020015f2090505f60085f8481526020019081526020015f20905060046008811115610f4a57610f49611c8e565b5b826008015f9054906101000a900460ff166008811115610f6d57610f6c611c8e565b5b14610fad576040517f08c379a0000000000000000000000000000000000000000000000000000000008152600401610fa490612550565b60405180910390fd5b8060010154815f01541115611024576005826008015f6101000a81548160ff02191690836008811115610fe357610fe2611c8e565b5b02179055507fc88f548f498c715f57c4c8a68891b1fb4525111fb9446c71bfca14b960a395c8836040516110179190611af9565b60405180910390a1611091565b6006826008015f6101000a81548160ff0219169083600881111561104b5761104a611c8e565b5b021790555061105983611a2f565b7fb1dee78cef8c6887046d91c59e17f84fbc012c9f7efa49a10cce97e13cc94bf4836040516110889190611af9565b60405180910390a15b505050565b60035481565b5f60035f8154809291906110af9061256e565b91905055505f60075f60035481526020019081526020015f20905033815f015f6101000a81548173ffffffffffffffffffffffffffffffffffffffff021916908373ffffffffffffffffffffffffffffffffffffffff16021790555084816002018190555083816006015f6101000a81548173ffffffffffffffffffffffffffffffffffffffff021916908373ffffffffffffffffffffffffffffffffffffffff1602179055505f816008015f6101000a81548160ff0219169083600881111561117c5761117b611c8e565b5b02179055504281600901819055508281600a01819055507fa1614c481428bb94175e0a6935486d35e5bbd86c664a34ddaabc98a48465fb8c600354336040516111c69291906123b2565b60405180910390a16003549150509392505050565b5f8054906101000a900473ffffffffffffffffffffffffffffffffffffffff1673ffffffffffffffffffffffffffffffffffffffff166323b872dd3330846040518463ffffffff1660e01b81526004016112379392919061237d565b6020604051808303815f875af1158015611253573d5f803e3d5ffd5b505050506040513d601f19601f82011682018060405250810190611277919061221a565b6112b6576040517f08c379a00000000000000000000000000000000000000000000000000000000081526004016112ad906122f7565b60405180910390fd5b8060095f3373ffffffffffffffffffffffffffffffffffffffff1673ffffffffffffffffffffffffffffffffffffffff1681526020019081526020015f205f82825461130291906125b5565b9250508190555050565b60025f9054906101000a900473ffffffffffffffffffffffffffffffffffffffff1681565b83600280600881111561134757611346611c8e565b5b60075f8481526020019081526020015f206008015f9054906101000a900460ff16600881111561137a57611379611c8e565b5b146113ba576040517f08c379a00000000000000000000000000000000000000000000000000000000081526004016113b1906120c3565b60405180910390fd5b5f60075f8881526020019081526020015f209050806001015f9054906101000a900473ffffffffffffffffffffffffffffffffffffffff1673ffffffffffffffffffffffffffffffffffffffff163373ffffffffffffffffffffffffffffffffffffffff161461145f576040517f08c379a000000000000000000000000000000000000000000000000000000000815260040161145690612632565b60405180910390fd5b858160040181905550848482600501918261147b92919061281b565b506004816008015f6101000a81548160ff021916908360088111156114a3576114a2611c8e565b5b02179055507f3822c71b106c7c1dabf7f076e68c9bd98c45d0cd0d073f4dcdaf422a0fe558478786866040516114db93929190612922565b60405180910390a150505050505050565b60055481565b60015f9054906101000a900473ffffffffffffffffffffffffffffffffffffffff1681565b6004600881111561152b5761152a611c8e565b5b60075f8481526020019081526020015f206008015f9054906101000a900460ff16600881111561155e5761155d611c8e565b5b1461159e576040517f08c379a00000000000000000000000000000000000000000000000000000000081526004016115959061299c565b60405180910390fd5b5f60095f3373ffffffffffffffffffffffffffffffffffffffff1673ffffffffffffffffffffffffffffffffffffffff1681526020019081526020015f20541161161d576040517f08c379a000000000000000000000000000000000000000000000000000000000815260040161161490612a04565b60405180910390fd5b5f60085f8481526020019081526020015f209050806002015f3373ffffffffffffffffffffffffffffffffffffffff1673ffffffffffffffffffffffffffffffffffffffff1681526020019081526020015f205f9054906101000a900460ff16156116bd576040517f08c379a00000000000000000000000000000000000000000000000000000000081526004016116b490612a6c565b60405180910390fd5b6001816002015f3373ffffffffffffffffffffffffffffffffffffffff1673ffffffffffffffffffffffffffffffffffffffff1681526020019081526020015f205f6101000a81548160ff02191690831515021790555081816003015f3373ffffffffffffffffffffffffffffffffffffffff1673ffffffffffffffffffffffffffffffffffffffff1681526020019081526020015f205f6101000a81548160ff0219169083151502179055508060040133908060018154018082558091505060019003905f5260205f20015f9091909190916101000a81548173ffffffffffffffffffffffffffffffffffffffff021916908373ffffffffffffffffffffffffffffffffffffffff16021790555081156117ef57805f015f8154809291906117e59061256e565b9190505550611809565b806001015f8154809291906118039061256e565b91905055505b7fe71fcdac32df1877c1700e7bda2a03157e20993363a28fc35ac495cefc76e4d483338460405161183c93929190612a99565b60405180910390a1505050565b6008602052805f5260405f205f91509050805f0154908060010154905082565b5f8054906101000a900473ffffffffffffffffffffffffffffffffffffffff1681565b5f60085f8481526020019081526020015f2090505f8160010154825f01546118b491906125b5565b90505f81036118c4575050611a2b565b5f81846118d1919061217c565b90505f5b8360040180549050811015611a26575f8460040182815481106118fb576118fa612ace565b5b905f5260205f20015f9054906101000a900473ffffffffffffffffffffffffffffffffffffffff169050846003015f8273ffffffffffffffffffffffffffffffffffffffff1673ffffffffffffffffffffffffffffffffffffffff1681526020019081526020015f205f9054906101000a900460ff1615611a12575f8054906101000a900473ffffffffffffffffffffffffffffffffffffffff1673ffffffffffffffffffffffffffffffffffffffff1663a9059cbb82856040518363ffffffff1660e01b81526004016119d09291906121df565b6020604051808303815f875af11580156119ec573d5f803e3d5ffd5b505050506040513d601f19601f82011682018060405250810190611a10919061221a565b505b508080611a1e9061256e565b9150506118d5565b505050505b5050565b5f8054906101000a900473ffffffffffffffffffffffffffffffffffffffff1673ffffffffffffffffffffffffffffffffffffffff1663a9059cbb5f60075f8581526020019081526020015f20600701546040518363ffffffff1660e01b8152600401611a9d9291906121df565b6020604051808303815f875af1158015611ab9573d5f803e3d5ffd5b505050506040513d601f19601f82011682018060405250810190611add919061221a565b5050565b5f819050919050565b611af381611ae1565b82525050565b5f602082019050611b0c5f830184611aea565b92915050565b5f80fd5b5f80fd5b611b2381611ae1565b8114611b2d575f80fd5b50565b5f81359050611b3e81611b1a565b92915050565b5f60208284031215611b5957611b58611b12565b5b5f611b6684828501611b30565b91505092915050565b5f8060408385031215611b8557611b84611b12565b5b5f611b9285828601611b30565b9250506020611ba385828601611b30565b9150509250929050565b5f73ffffffffffffffffffffffffffffffffffffffff82169050919050565b5f611bd682611bad565b9050919050565b611be681611bcc565b82525050565b5f819050919050565b611bfe81611bec565b82525050565b5f81519050919050565b5f82825260208201905092915050565b5f5b83811015611c3b578082015181840152602081019050611c20565b5f8484015250505050565b5f601f19601f8301169050919050565b5f611c6082611c04565b611c6a8185611c0e565b9350611c7a818560208601611c1e565b611c8381611c46565b840191505092915050565b7f4e487b71000000000000000000000000000000000000000000000000000000005f52602160045260245ffd5b60098110611ccc57611ccb611c8e565b5b50565b5f819050611cdc82611cbb565b919050565b5f611ceb82611ccf565b9050919050565b611cfb81611ce1565b82525050565b5f61016082019050611d155f83018e611bdd565b611d22602083018d611bdd565b611d2f604083018c611aea565b611d3c606083018b611aea565b611d49608083018a611bf5565b81810360a0830152611d5b8189611c56565b9050611d6a60c0830188611bdd565b611d7760e0830187611aea565b611d85610100830186611cf2565b611d93610120830185611aea565b611da1610140830184611aea565b9c9b505050505050505050505050565b611dba81611bcc565b8114611dc4575f80fd5b50565b5f81359050611dd581611db1565b92915050565b5f60208284031215611df057611def611b12565b5b5f611dfd84828501611dc7565b91505092915050565b5f805f60608486031215611e1d57611e1c611b12565b5b5f611e2a86828701611b30565b9350506020611e3b86828701611dc7565b9250506040611e4c86828701611b30565b9150509250925092565b5f602082019050611e695f830184611bdd565b92915050565b611e7881611bec565b8114611e82575f80fd5b50565b5f81359050611e9381611e6f565b92915050565b5f80fd5b5f80fd5b5f80fd5b5f8083601f840112611eba57611eb9611e99565b5b8235905067ffffffffffffffff811115611ed757611ed6611e9d565b5b602083019150836001820283011115611ef357611ef2611ea1565b5b9250929050565b5f805f8060608587031215611f1257611f11611b12565b5b5f611f1f87828801611b30565b9450506020611f3087828801611e85565b935050604085013567ffffffffffffffff811115611f5157611f50611b16565b5b611f5d87828801611ea5565b925092505092959194509250565b5f8115159050919050565b611f7f81611f6b565b8114611f89575f80fd5b50565b5f81359050611f9a81611f76565b92915050565b5f8060408385031215611fb657611fb5611b12565b5b5f611fc385828601611b30565b9250506020611fd485828601611f8c565b9150509250929050565b5f604082019050611ff15f830185611aea565b611ffe6020830184611aea565b9392505050565b5f819050919050565b5f61202861202361201e84611bad565b612005565b611bad565b9050919050565b5f6120398261200e565b9050919050565b5f61204a8261202f565b9050919050565b61205a81612040565b82525050565b5f6020820190506120735f830184612051565b92915050565b7f496e76616c6964207374617465000000000000000000000000000000000000005f82015250565b5f6120ad600d83611c0e565b91506120b882612079565b602082019050919050565b5f6020820190508181035f8301526120da816120a1565b9050919050565b7f4e487b71000000000000000000000000000000000000000000000000000000005f52601160045260245ffd5b5f61211882611ae1565b915061212383611ae1565b925082820261213181611ae1565b91508282048414831517612148576121476120e1565b5b5092915050565b7f4e487b71000000000000000000000000000000000000000000000000000000005f52601260045260245ffd5b5f61218682611ae1565b915061219183611ae1565b9250826121a1576121a061214f565b5b828204905092915050565b5f6121b682611ae1565b91506121c183611ae1565b92508282039050818111156121d9576121d86120e1565b5b92915050565b5f6040820190506121f25f830185611bdd565b6121ff6020830184611aea565b9392505050565b5f8151905061221481611f76565b92915050565b5f6020828403121561222f5761222e611b12565b5b5f61223c84828501612206565b91505092915050565b7f5061796f7574206661696c6564000000000000000000000000000000000000005f82015250565b5f612279600d83611c0e565b915061228482612245565b602082019050919050565b5f6020820190508181035f8301526122a68161226d565b9050919050565b7f5374616b65206661696c656400000000000000000000000000000000000000005f82015250565b5f6122e1600c83611c0e565b91506122ec826122ad565b602082019050919050565b5f6020820190508181035f83015261230e816122d5565b9050919050565b7f416c72656164792074616b656e000000000000000000000000000000000000005f82015250565b5f612349600d83611c0e565b915061235482612315565b602082019050919050565b5f6020820190508181035f8301526123768161233d565b9050919050565b5f6060820190506123905f830186611bdd565b61239d6020830185611bdd565b6123aa6040830184611aea565b949350505050565b5f6040820190506123c55f830185611aea565b6123d26020830184611bdd565b9392505050565b7f4e6f7420726571756573746572000000000000000000000000000000000000005f82015250565b5f61240d600d83611c0e565b9150612418826123d9565b602082019050919050565b5f6020820190508181035f83015261243a81612401565b9050919050565b7f5472616e73666572206661696c656400000000000000000000000000000000005f82015250565b5f612475600f83611c0e565b915061248082612441565b602082019050919050565b5f6020820190508181035f8301526124a281612469565b9050919050565b7f4e487b71000000000000000000000000000000000000000000000000000000005f52602260045260245ffd5b5f60028204905060018216806124ed57607f821691505b602082108103612500576124ff6124a9565b5b50919050565b7f4e6f7420696e2076616c69646174696f6e0000000000000000000000000000005f82015250565b5f61253a601183611c0e565b915061254582612506565b602082019050919050565b5f6020820190508181035f8301526125678161252e565b9050919050565b5f61257882611ae1565b91507fffffffffffffffffffffffffffffffffffffffffffffffffffffffffffffffff82036125aa576125a96120e1565b5b600182019050919050565b5f6125bf82611ae1565b91506125ca83611ae1565b92508282019050808211156125e2576125e16120e1565b5b92915050565b7f4e6f7420776f726b6572000000000000000000000000000000000000000000005f82015250565b5f61261c600a83611c0e565b9150612627826125e8565b602082019050919050565b5f6020820190508181035f83015261264981612610565b9050919050565b5f82905092915050565b7f4e487b71000000000000000000000000000000000000000000000000000000005f52604160045260245ffd5b5f819050815f5260205f209050919050565b5f6020601f8301049050919050565b5f82821b905092915050565b5f600883026126e37fffffffffffffffffffffffffffffffffffffffffffffffffffffffffffffffff826126a8565b6126ed86836126a8565b95508019841693508086168417925050509392505050565b5f61271f61271a61271584611ae1565b612005565b611ae1565b9050919050565b5f819050919050565b61273883612705565b61274c61274482612726565b8484546126b4565b825550505050565b5f90565b612760612754565b61276b81848461272f565b505050565b5b8181101561278e576127835f82612758565b600181019050612771565b5050565b601f8211156127d3576127a481612687565b6127ad84612699565b810160208510156127bc578190505b6127d06127c885612699565b830182612770565b50505b505050565b5f82821c905092915050565b5f6127f35f19846008026127d8565b1980831691505092915050565b5f61280b83836127e4565b9150826002028217905092915050565b6128258383612650565b67ffffffffffffffff81111561283e5761283d61265a565b5b61284882546124d6565b612853828285612792565b5f601f831160018114612880575f841561286e578287013590505b6128788582612800565b8655506128df565b601f19841661288e86612687565b5f5b828110156128b557848901358255600182019150602085019450602081019050612890565b868310156128d257848901356128ce601f8916826127e4565b8355505b6001600288020188555050505b50505050505050565b828183375f83830152505050565b5f6129018385611c0e565b935061290e8385846128e8565b61291783611c46565b840190509392505050565b5f6040820190506129355f830186611aea565b81810360208301526129488184866128f6565b9050949350505050565b7f4e6f742076616c69646174696e670000000000000000000000000000000000005f82015250565b5f612986600e83611c0e565b915061299182612952565b602082019050919050565b5f6020820190508181035f8301526129b38161297a565b9050919050565b7f4e6f207374616b650000000000000000000000000000000000000000000000005f82015250565b5f6129ee600883611c0e565b91506129f9826129ba565b602082019050919050565b5f6020820190508181035f830152612a1b816129e2565b9050919050565b7f416c726561647920766f746564000000000000000000000000000000000000005f82015250565b5f612a56600d83611c0e565b9150612a6182612a22565b602082019050919050565b5f6020820190508181035f830152612a8381612a4a565b9050919050565b612a9381611f6b565b82525050565b5f606082019050612aac5f830186611aea565b612ab96020830185611bdd565b612ac66040830184612a8a565b949350505050565b7f4e487b71000000000000000000000000000000000000000000000000000000005f52603260045260245ffdfea2646970667358221220393969c88cff598cccfd0c5853f79fc1a0b7852cde05d0540510cf9c8737407964736f6c63430008140033",
  "linkReferences": {},
  "deployedLinkReferences": {},
  "immutableReferences": {},
  "inputSourceName": "project/src/JobEscrow.sol",
  "buildInfoId": "solc-0_8_20-80868d06168699d447fa5d2ac1a48b39a8a8ffcc"
}